{"fileName":"Polygoons.sol","contractName":"Polygoons","source":"pragma solidity ^0.5.0;\npragma experimental ABIEncoderV2;\n\nimport \"zos-lib/contracts/Initializable.sol\";\nimport './erc-1155/contracts/ERC1155Mintable.sol';\n\ncontract Polygoons is Initializable {\n\n    event GoonCreated(uint256 id, string uri);\n\n    struct Goon {\n        uint256 tokenId;\n        string metadataUri;\n    }\n\n    ERC1155Mintable public token;\n    bool private initialized;\n\n    Goon[] public goons;\n    mapping (uint256 => address) public goonIndexToOwner;\n\n    function initialize() initializer public {\n        require(!initialized);\n        token = new ERC1155Mintable();\n        _createPolygoon(\"0th GOON\");\n        initialized = true;\n    }\n\n    function goonPopulation() public view returns (uint) {\n        return goons.length;\n    }\n\n    function getGoon(uint256 goonTokenId) public view returns (Goon memory goon) {\n        return goons[goonTokenId];\n    }\n\n    function _createPolygoon(string memory _uri) public returns (uint) {\n        uint256 _tokenId = token.create(1, _uri);\n\n        Goon memory _goon = Goon({\n           tokenId: _tokenId,\n           metadataUri: _uri\n        });\n\n        uint256 newGoonId = goons.push(_goon) - 1;\n        goonIndexToOwner[newGoonId] = msg.sender;\n\n        emit GoonCreated(_tokenId, _uri);\n\n        return newGoonId;\n    }\n}\n","sourcePath":"contracts/Polygoons.sol","abi":[{"constant":true,"inputs":[{"name":"","type":"uint256"}],"name":"goons","outputs":[{"name":"tokenId","type":"uint256"},{"name":"metadataUri","type":"string"}],"payable":false,"stateMutability":"view","type":"function"},{"constant":true,"inputs":[{"name":"","type":"uint256"}],"name":"goonIndexToOwner","outputs":[{"name":"","type":"address"}],"payable":false,"stateMutability":"view","type":"function"},{"constant":true,"inputs":[{"name":"goonTokenId","type":"uint256"}],"name":"getGoon","outputs":[{"components":[{"name":"tokenId","type":"uint256"},{"name":"metadataUri","type":"string"}],"name":"goon","type":"tuple"}],"payable":false,"stateMutability":"view","type":"function"},{"constant":false,"inputs":[],"name":"initialize","outputs":[],"payable":false,"stateMutability":"nonpayable","type":"function"},{"constant":false,"inputs":[{"name":"_uri","type":"string"}],"name":"_createPolygoon","outputs":[{"name":"","type":"uint256"}],"payable":false,"stateMutability":"nonpayable","type":"function"},{"constant":true,"inputs":[],"name":"goonPopulation","outputs":[{"name":"","type":"uint256"}],"payable":false,"stateMutability":"view","type":"function"},{"constant":true,"inputs":[],"name":"token","outputs":[{"name":"","type":"address"}],"payable":false,"stateMutability":"view","type":"function"},{"anonymous":false,"inputs":[{"indexed":false,"name":"id","type":"uint256"},{"indexed":false,"name":"uri","type":"string"}],"name":"GoonCreated","type":"event"}],"bytecode":"0x60806040523480156100115760006000fd5b50610017565b61310a806100266000396000f3fe60806040523480156100115760006000fd5b50600436106100825760003560e01c80638129fc1c1161005c5780638129fc1c146101195780638255cf6914610123578063e0ef68f414610153578063fc0c546a1461017157610082565b806308d6077a14610088578063306408d6146100b957806338de52d1146100e957610082565b60006000fd5b6100a2600480360361009d9190810190610940565b61018f565b6040516100b0929190610bf0565b60405180910390f35b6100d360048036036100ce9190810190610940565b610264565b6040516100e09190610b2d565b60405180910390f35b61010360048036036100fe9190810190610940565b61029c565b6040516101109190610bb3565b60405180910390f35b610121610394565b005b61013d600480360361013891908101906108fd565b610565565b60405161014a9190610bd5565b60405180910390f35b61015b61074a565b6040516101689190610bd5565b60405180910390f35b61017961075f565b6040516101869190610b48565b60405180910390f35b6034600050818154811015156101a157fe5b906000526020600020906002020160005b91509050806000016000505490806001016000508054600181600116156101000203166002900480601f01602080910402602001604051908101604052809291908181526020018280546001816001161561010002031660029004801561025a5780601f1061022f5761010080835404028352916020019161025a565b820191906000526020600020905b81548152906001019060200180831161023d57829003601f168201915b5050505050905082565b603560005060205280600052604060002060009150909054906101000a900473ffffffffffffffffffffffffffffffffffffffff1681565b6102a461079d565b6034600050828154811015156102b657fe5b906000526020600020906002020160005b5060405180604001604052908160008201600050548152602001600182016000508054600181600116156101000203166002900480601f01602080910402602001604051908101604052809291908181526020018280546001816001161561010002031660029004801561037c5780601f106103515761010080835404028352916020019161037c565b820191906000526020600020905b81548152906001019060200180831161035f57829003601f168201915b505050505081526020015050905061038f565b919050565b600060019054906101000a900460ff16806103b957506103b861078563ffffffff16565b5b806103d15750600060009054906101000a900460ff16155b1515610412576040517f08c379a000000000000000000000000000000000000000000000000000000000815260040161040990610b93565b60405180910390fd5b6000600060019054906101000a900460ff1690506001600060016101000a81548160ff0219169083151502179055506001600060006101000a81548160ff021916908315150217905550603360149054906101000a900460ff161515156104795760006000fd5b604051610485906107ba565b604051809103906000f0801580156104a2573d600060003e3d6000fd5b50603360006101000a81548173ffffffffffffffffffffffffffffffffffffffff021916908373ffffffffffffffffffffffffffffffffffffffff16021790555061052a6040518060400160405280600881526020017f30746820474f4f4e00000000000000000000000000000000000000000000000081526020015061056563ffffffff16565b506001603360146101000a81548160ff0219169083151502179055505b80600060016101000a81548160ff021916908315150217905550505b565b60006000603360009054906101000a900473ffffffffffffffffffffffffffffffffffffffff1673ffffffffffffffffffffffffffffffffffffffff16630118fa496001856040518363ffffffff1660e01b81526004016105c7929190610b63565b602060405180830381600087803b1580156105e25760006000fd5b505af11580156105f7573d600060003e3d6000fd5b505050506040513d601f19601f8201168201806040525061061b919081019061096a565b905061062561079d565b60405180604001604052808381526020018581526020015090506000600160346000508390806001815401808255809150509060018203906000526020600020906002020160005b909192909190915060008201518160000160005090905560208201518160010160005090805190602001906106a39291906107c7565b505050039050336035600050600083815260200190815260200160002060006101000a81548173ffffffffffffffffffffffffffffffffffffffff021916908373ffffffffffffffffffffffffffffffffffffffff1602179055507f48a95d445707c15995f08196d24a1e9c1c79ff6ffaa48662e4cc3578b104fb2f838660405161072f929190610c20565b60405180910390a1809350505050610745565050505b919050565b6000603460005080549050905061075c565b90565b603360009054906101000a900473ffffffffffffffffffffffffffffffffffffffff1681565b60006000303b90506000811491505061079a56505b90565b604051806040016040528060008152602001606081526020015090565b61230380610dc583390190565b828054600181600116156101000203166002900490600052602060002090601f016020900481019282601f1061080857805160ff191683800117855561083b565b8280016001018555821561083b579182015b8281111561083a578251826000509090559160200191906001019061081a565b5b509050610848919061084c565b5090565b6108749190610856565b808211156108705760008181506000905550600101610856565b5090565b9056610dc3565b600082601f830112151561088f5760006000fd5b81356108a261089d82610c7e565b610c50565b915080825260208301602083018583830111156108bf5760006000fd5b6108ca838284610d55565b50505092915050565b6000813590506108e281610da9565b92915050565b6000815190506108f781610da9565b92915050565b6000602082840312156109105760006000fd5b600082013567ffffffffffffffff81111561092b5760006000fd5b6109378482850161087b565b91505092915050565b6000602082840312156109535760006000fd5b6000610961848285016108d3565b91505092915050565b60006020828403121561097d5760006000fd5b600061098b848285016108e8565b91505092915050565b61099d81610ce3565b82525050565b6109ac81610d1f565b82525050565b6109bb81610d43565b82525050565b60006109cc82610cb6565b6109d68185610cd2565b93506109e6818560208601610d64565b6109ef81610d98565b840191505092915050565b6000610a0582610cab565b610a0f8185610cc1565b9350610a1f818560208601610d64565b610a2881610d98565b840191505092915050565b6000610a3e82610cab565b610a488185610cd2565b9350610a58818560208601610d64565b610a6181610d98565b840191505092915050565b6000610a79602e83610cd2565b91507f436f6e747261637420696e7374616e63652068617320616c726561647920626560008301527f656e20696e697469616c697a65640000000000000000000000000000000000006020830152604082019050919050565b6000604083016000830151610aea6000860182610b0f565b5060208301518482036020860152610b0282826109fa565b9150508091505092915050565b610b1881610d15565b82525050565b610b2781610d15565b82525050565b6000602082019050610b426000830184610994565b92915050565b6000602082019050610b5d60008301846109a3565b92915050565b6000604082019050610b7860008301856109b2565b8181036020830152610b8a81846109c1565b90509392505050565b60006020820190508181036000830152610bac81610a6c565b9050919050565b60006020820190508181036000830152610bcd8184610ad2565b905092915050565b6000602082019050610bea6000830184610b1e565b92915050565b6000604082019050610c056000830185610b1e565b8181036020830152610c178184610a33565b90509392505050565b6000604082019050610c356000830185610b1e565b8181036020830152610c4781846109c1565b90509392505050565b6000604051905081810181811067ffffffffffffffff82111715610c745760006000fd5b8060405250919050565b600067ffffffffffffffff821115610c965760006000fd5b601f19601f8301169050602081019050919050565b600081519050919050565b600081519050919050565b600082825260208201905092915050565b600082825260208201905092915050565b6000610cee82610cf5565b9050919050565b600073ffffffffffffffffffffffffffffffffffffffff82169050919050565b6000819050919050565b6000610d2a82610d31565b9050919050565b6000610d3c82610cf5565b9050919050565b6000610d4e82610d15565b9050919050565b82818337600083830152505050565b60005b83811015610d835780820151818401525b602081019050610d67565b83811115610d92576000848401525b50505050565b6000601f19601f8301169050919050565b610db281610d15565b81141515610dc05760006000fd5b50565bfe60806040523480156100115760006000fd5b50610017565b6122dd806100266000396000f3fe60806040523480156100115760006000fd5b50600436106100b85760003560e01c8063a22cb46511610072578063a22cb4651461054f578063affed0e0146105a0578063cd53d08e146105be578063cfa84fc11461062d578063e985e9c514610710578063f242432a1461078d576100b8565b8062fdd58e146100be5780630118fa491461012157806301ffc9a7146101be5780632eb2c2d6146102245780634e1273f41461039757806367db3b8f146104c6576100b8565b60006000fd5b61010b600480360360408110156100d55760006000fd5b81019080803573ffffffffffffffffffffffffffffffffffffffff16906020019092919080359060200190929190505050610860565b6040518082815260200191505060405180910390f35b6101a8600480360360408110156101385760006000fd5b8101908080359060200190929190803590602001906401000000008111156101605760006000fd5b8201836020820111156101735760006000fd5b803590602001918460018302840111640100000000831117156101965760006000fd5b909192939090919293905050506108c9565b6040518082815260200191505060405180910390f35b61020a600480360360208110156101d55760006000fd5b8101908080357bffffffffffffffffffffffffffffffffffffffffffffffffffffffff19169060200190929190505050610a95565b604051808215151515815260200191505060405180910390f35b610395600480360360a081101561023b5760006000fd5b81019080803573ffffffffffffffffffffffffffffffffffffffff169060200190929190803573ffffffffffffffffffffffffffffffffffffffff169060200190929190803590602001906401000000008111156102995760006000fd5b8201836020820111156102ac5760006000fd5b803590602001918460208302840111640100000000831117156102cf5760006000fd5b90919293909091929390803590602001906401000000008111156102f35760006000fd5b8201836020820111156103065760006000fd5b803590602001918460208302840111640100000000831117156103295760006000fd5b909192939090919293908035906020019064010000000081111561034d5760006000fd5b8201836020820111156103605760006000fd5b803590602001918460018302840111640100000000831117156103835760006000fd5b90919293909091929390505050610b0d565b005b61046e600480360360408110156103ae5760006000fd5b81019080803590602001906401000000008111156103cc5760006000fd5b8201836020820111156103df5760006000fd5b803590602001918460208302840111640100000000831117156104025760006000fd5b90919293909091929390803590602001906401000000008111156104265760006000fd5b8201836020820111156104395760006000fd5b8035906020019184602083028401116401000000008311171561045c5760006000fd5b909192939090919293905050506110f8565b6040518080602001828103825283818151815260200191508051906020019060200280838360005b838110156104b25780820151818401525b602081019050610496565b505050509050019250505060405180910390f35b61054d600480360360408110156104dd5760006000fd5b81019080803590602001906401000000008111156104fb5760006000fd5b82018360208201111561050e5760006000fd5b803590602001918460018302840111640100000000831117156105315760006000fd5b9091929390909192939080359060200190929190505050611230565b005b61059e600480360360408110156105665760006000fd5b81019080803573ffffffffffffffffffffffffffffffffffffffff16906020019092919080351515906020019092919050505061130e565b005b6105a8611416565b6040518082815260200191505060405180910390f35b6105eb600480360360208110156105d55760006000fd5b810190808035906020019092919050505061141f565b604051808273ffffffffffffffffffffffffffffffffffffffff1673ffffffffffffffffffffffffffffffffffffffff16815260200191505060405180910390f35b61070e600480360360608110156106445760006000fd5b81019080803590602001909291908035906020019064010000000081111561066c5760006000fd5b82018360208201111561067f5760006000fd5b803590602001918460208302840111640100000000831117156106a25760006000fd5b90919293909091929390803590602001906401000000008111156106c65760006000fd5b8201836020820111156106d95760006000fd5b803590602001918460208302840111640100000000831117156106fc5760006000fd5b90919293909091929390505050611457565b005b610773600480360360408110156107275760006000fd5b81019080803573ffffffffffffffffffffffffffffffffffffffff169060200190929190803573ffffffffffffffffffffffffffffffffffffffff1690602001909291905050506116e1565b604051808215151515815260200191505060405180910390f35b61085e600480360360a08110156107a45760006000fd5b81019080803573ffffffffffffffffffffffffffffffffffffffff169060200190929190803573ffffffffffffffffffffffffffffffffffffffff1690602001909291908035906020019092919080359060200190929190803590602001906401000000008111156108165760006000fd5b8201836020820111156108295760006000fd5b8035906020019184600183028401116401000000008311171561084c5760006000fd5b90919293909091929390505050611780565b005b60006000600050600083815260200190815260200160002060005060008473ffffffffffffffffffffffffffffffffffffffff1673ffffffffffffffffffffffffffffffffffffffff1681526020019081526020016000206000505490506108c3565b92915050565b60006003600081815054600101919050819090905590508050336002600050600083815260200190815260200160002060006101000a81548173ffffffffffffffffffffffffffffffffffffffff021916908373ffffffffffffffffffffffffffffffffffffffff160217905550836000600050600083815260200190815260200160002060005060003373ffffffffffffffffffffffffffffffffffffffff1673ffffffffffffffffffffffffffffffffffffffff1681526020019081526020016000206000508190909055503373ffffffffffffffffffffffffffffffffffffffff16600073ffffffffffffffffffffffffffffffffffffffff163373ffffffffffffffffffffffffffffffffffffffff167fc3d58168c5ae7397731d063d5bbf3d657854427343f4c083240f7aacaa2d0f628488604051808381526020018281526020019250505060405180910390a46000838390501115610a8d57807f6bb7ff708619ba0610cba295a58592e0451dee2622938c8755667688daf3529b848460405180806020018281038252848482818152602001925080828437600081840152601f19601f820116905080830192505050935050505060405180910390a25b5b9392505050565b6000630e89341c60e01b7bffffffffffffffffffffffffffffffffffffffffffffffffffffffff1916827bffffffffffffffffffffffffffffffffffffffffffffffffffffffff19161415610af15760019050610b0856610b07565b610b0082611bf463ffffffff16565b9050610b08565b5b919050565b600073ffffffffffffffffffffffffffffffffffffffff168773ffffffffffffffffffffffffffffffffffffffff1614151515610b95576040517f08c379a00000000000000000000000000000000000000000000000000000000081526004018080602001828103825260258152602001806121b56025913960400191505060405180910390fd5b8383905086869050141515610bf5576040517f08c379a00000000000000000000000000000000000000000000000000000000081526004018080602001828103825260298152602001806122476029913960400191505060405180910390fd5b3373ffffffffffffffffffffffffffffffffffffffff168873ffffffffffffffffffffffffffffffffffffffff161480610cc2575060011515600160005060008a73ffffffffffffffffffffffffffffffffffffffff1673ffffffffffffffffffffffffffffffffffffffff16815260200190815260200160002060005060003373ffffffffffffffffffffffffffffffffffffffff1673ffffffffffffffffffffffffffffffffffffffff16815260200190815260200160002060009054906101000a900460ff161515145b1515610d19576040517f08c379a000000000000000000000000000000000000000000000000000000000815260040180806020018281038252602f8152602001806121da602f913960400191505060405180910390fd5b6000600090505b86869050811015610f035760008787838181101515610d3b57fe5b90506020020135905060008686848181101515610d5457fe5b905060200201359050610dc9816000600050600085815260200190815260200160002060005060008e73ffffffffffffffffffffffffffffffffffffffff1673ffffffffffffffffffffffffffffffffffffffff16815260200190815260200160002060005054611ca990919063ffffffff16565b6000600050600084815260200190815260200160002060005060008d73ffffffffffffffffffffffffffffffffffffffff1673ffffffffffffffffffffffffffffffffffffffff168152602001908152602001600020600050819090905550610e946000600050600084815260200190815260200160002060005060008c73ffffffffffffffffffffffffffffffffffffffff1673ffffffffffffffffffffffffffffffffffffffff1681526020019081526020016000206000505482611cc790919063ffffffff16565b6000600050600084815260200190815260200160002060005060008c73ffffffffffffffffffffffffffffffffffffffff1673ffffffffffffffffffffffffffffffffffffffff16815260200190815260200160002060005081909090555050505b8060010190508050610d20565b508673ffffffffffffffffffffffffffffffffffffffff168873ffffffffffffffffffffffffffffffffffffffff163373ffffffffffffffffffffffffffffffffffffffff167f4a39dc06d4c0dbc64b70af90fd698a233a518aa5d07e595d983b8c0526c8f7fb898989896040518080602001806020018381038352878782818152602001925060200280828437600081840152601f19601f8201169050808301925050508381038252858582818152602001925060200280828437600081840152601f19601f820116905080830192505050965050505050505060405180910390a461100d8773ffffffffffffffffffffffffffffffffffffffff16611cea909063ffffffff16565b156110ed576110ec338989898980806020026020016040519081016040528093929190818152602001838360200280828437600081840152601f19601f82011690508083019250505050505050888880806020026020016040519081016040528093929190818152602001838360200280828437600081840152601f19601f8201169050808301925050505050505087878080601f016020809104026020016040519081016040528093929190818152602001838380828437600081840152601f19601f82011690508083019250505050505050611d0463ffffffff16565b5b5b5050505050505050565b6060828290508585905014151561110f5760006000fd5b6060858590506040519080825280602002602001820160405280156111435781602001602082028038833980820191505090505b5090506000600090505b8686905081101561121d5760006000506000868684818110151561116d57fe5b9050602002013581526020019081526020016000206000506000888884818110151561119557fe5b9050602002013573ffffffffffffffffffffffffffffffffffffffff1673ffffffffffffffffffffffffffffffffffffffff1673ffffffffffffffffffffffffffffffffffffffff1681526020019081526020016000206000505482828151811015156111fe57fe5b60200260200101909081815260200150505b806001019050805061114d565b508091505061122856505b949350505050565b803373ffffffffffffffffffffffffffffffffffffffff166002600050600083815260200190815260200160002060009054906101000a900473ffffffffffffffffffffffffffffffffffffffff1673ffffffffffffffffffffffffffffffffffffffff161415156112a25760006000fd5b817f6bb7ff708619ba0610cba295a58592e0451dee2622938c8755667688daf3529b858560405180806020018281038252848482818152602001925080828437600081840152601f19601f820116905080830192505050935050505060405180910390a25b5b50505050565b80600160005060003373ffffffffffffffffffffffffffffffffffffffff1673ffffffffffffffffffffffffffffffffffffffff16815260200190815260200160002060005060008473ffffffffffffffffffffffffffffffffffffffff1673ffffffffffffffffffffffffffffffffffffffff16815260200190815260200160002060006101000a81548160ff0219169083151502179055508173ffffffffffffffffffffffffffffffffffffffff163373ffffffffffffffffffffffffffffffffffffffff167f17307eab39ab6107e8899845ad3d59bd9653f200f220920489ca2b5937696c3183604051808215151515815260200191505060405180910390a35b5050565b60036000505481565b600260005060205280600052604060002060009150909054906101000a900473ffffffffffffffffffffffffffffffffffffffff1681565b843373ffffffffffffffffffffffffffffffffffffffff166002600050600083815260200190815260200160002060009054906101000a900473ffffffffffffffffffffffffffffffffffffffff1673ffffffffffffffffffffffffffffffffffffffff161415156114c95760006000fd5b6000600090505b858590508110156116d657600086868381811015156114eb57fe5b9050602002013573ffffffffffffffffffffffffffffffffffffffff1690506000858584818110151561151a57fe5b90506020020135905061158f600060005060008b815260200190815260200160002060005060008473ffffffffffffffffffffffffffffffffffffffff1673ffffffffffffffffffffffffffffffffffffffff1681526020019081526020016000206000505482611cc790919063ffffffff16565b600060005060008b815260200190815260200160002060005060008473ffffffffffffffffffffffffffffffffffffffff1673ffffffffffffffffffffffffffffffffffffffff1681526020019081526020016000206000508190909055508173ffffffffffffffffffffffffffffffffffffffff16600073ffffffffffffffffffffffffffffffffffffffff163373ffffffffffffffffffffffffffffffffffffffff167fc3d58168c5ae7397731d063d5bbf3d657854427343f4c083240f7aacaa2d0f628c85604051808381526020018281526020019250505060405180910390a461169a8273ffffffffffffffffffffffffffffffffffffffff16611cea909063ffffffff16565b156116c6576116c53333848c8560405180602001604052806000815260200150611f9e63ffffffff16565b5b50505b80600101905080506114d0565b505b5b505050505050565b6000600160005060008473ffffffffffffffffffffffffffffffffffffffff1673ffffffffffffffffffffffffffffffffffffffff16815260200190815260200160002060005060008373ffffffffffffffffffffffffffffffffffffffff1673ffffffffffffffffffffffffffffffffffffffff16815260200190815260200160002060009054906101000a900460ff16905061177a565b92915050565b600073ffffffffffffffffffffffffffffffffffffffff168573ffffffffffffffffffffffffffffffffffffffff1614151515611828576040517f08c379a00000000000000000000000000000000000000000000000000000000081526004018080602001828103825260158152602001807f5f746f206d757374206265206e6f6e2d7a65726f2e000000000000000000000081526020015060200191505060405180910390fd5b3373ffffffffffffffffffffffffffffffffffffffff168673ffffffffffffffffffffffffffffffffffffffff1614806118f5575060011515600160005060008873ffffffffffffffffffffffffffffffffffffffff1673ffffffffffffffffffffffffffffffffffffffff16815260200190815260200160002060005060003373ffffffffffffffffffffffffffffffffffffffff1673ffffffffffffffffffffffffffffffffffffffff16815260200190815260200160002060009054906101000a900460ff161515145b151561194c576040517f08c379a000000000000000000000000000000000000000000000000000000000815260040180806020018281038252602f8152602001806121da602f913960400191505060405180910390fd5b6119b8836000600050600087815260200190815260200160002060005060008973ffffffffffffffffffffffffffffffffffffffff1673ffffffffffffffffffffffffffffffffffffffff16815260200190815260200160002060005054611ca990919063ffffffff16565b6000600050600086815260200190815260200160002060005060008873ffffffffffffffffffffffffffffffffffffffff1673ffffffffffffffffffffffffffffffffffffffff168152602001908152602001600020600050819090905550611a836000600050600086815260200190815260200160002060005060008773ffffffffffffffffffffffffffffffffffffffff1673ffffffffffffffffffffffffffffffffffffffff1681526020019081526020016000206000505484611cc790919063ffffffff16565b6000600050600086815260200190815260200160002060005060008773ffffffffffffffffffffffffffffffffffffffff1673ffffffffffffffffffffffffffffffffffffffff1681526020019081526020016000206000508190909055508473ffffffffffffffffffffffffffffffffffffffff168673ffffffffffffffffffffffffffffffffffffffff163373ffffffffffffffffffffffffffffffffffffffff167fc3d58168c5ae7397731d063d5bbf3d657854427343f4c083240f7aacaa2d0f628787604051808381526020018281526020019250505060405180910390a4611b8d8573ffffffffffffffffffffffffffffffffffffffff16611cea909063ffffffff16565b15611beb57611bea338787878787878080601f016020809104026020016040519081016040528093929190818152602001838380828437600081840152601f19601f82011690508083019250505050505050611f9e63ffffffff16565b5b5b505050505050565b60006301ffc9a760e01b7bffffffffffffffffffffffffffffffffffffffffffffffffffffffff1916827bffffffffffffffffffffffffffffffffffffffffffffffffffffffff19161480611c8d575063d9b67a2660e01b7bffffffffffffffffffffffffffffffffffffffffffffffffffffffff1916827bffffffffffffffffffffffffffffffffffffffffffffffffffffffff1916145b15611c9b5760019050611ca4565b60009050611ca4565b919050565b6000828211151515611cb757fe5b8183039050611cc1565b92915050565b600081830190508050828110151515611cdc57fe5b809050611ce4565b92915050565b60006000823b905060008111915050611cff56505b919050565b63bc197c8160e01b7bffffffffffffffffffffffffffffffffffffffffffffffffffffffff19168473ffffffffffffffffffffffffffffffffffffffff1663bc197c8188888787876040518663ffffffff1660e01b8152600401808673ffffffffffffffffffffffffffffffffffffffff1673ffffffffffffffffffffffffffffffffffffffff1681526020018573ffffffffffffffffffffffffffffffffffffffff1673ffffffffffffffffffffffffffffffffffffffff168152602001806020018060200180602001848103845287818151815260200191508051906020019060200280838360005b83811015611e0b5780820151818401525b602081019050611def565b50505050905001848103835286818151815260200191508051906020019060200280838360005b83811015611e4e5780820151818401525b602081019050611e32565b50505050905001848103825285818151815260200191508051906020019080838360005b83811015611e8e5780820151818401525b602081019050611e72565b50505050905090810190601f168015611ebb5780820380516001836020036101000a031916815260200191505b5098505050505050505050602060405180830381600087803b158015611ee15760006000fd5b505af1158015611ef6573d600060003e3d6000fd5b505050506040513d6020811015611f0d5760006000fd5b81019080805190602001909291905050507bffffffffffffffffffffffffffffffffffffffffffffffffffffffff1916141515611f95576040517f08c379a000000000000000000000000000000000000000000000000000000000815260040180806020018281038252603e815260200180612209603e913960400191505060405180910390fd5b5b505050505050565b63f23a6e6160e01b7bffffffffffffffffffffffffffffffffffffffffffffffffffffffff19168473ffffffffffffffffffffffffffffffffffffffff1663f23a6e6188888787876040518663ffffffff1660e01b8152600401808673ffffffffffffffffffffffffffffffffffffffff1673ffffffffffffffffffffffffffffffffffffffff1681526020018573ffffffffffffffffffffffffffffffffffffffff1673ffffffffffffffffffffffffffffffffffffffff16815260200184815260200183815260200180602001828103825283818151815260200191508051906020019080838360005b838110156120a65780820151818401525b60208101905061208a565b50505050905090810190601f1680156120d35780820380516001836020036101000a031916815260200191505b509650505050505050602060405180830381600087803b1580156120f75760006000fd5b505af115801561210c573d600060003e3d6000fd5b505050506040513d60208110156121235760006000fd5b81019080805190602001909291905050507bffffffffffffffffffffffffffffffffffffffffffffffffffffffff19161415156121ab576040517f08c379a00000000000000000000000000000000000000000000000000000000081526004018080602001828103825260398152602001806122706039913960400191505060405180910390fd5b5b50505050505056fe64657374696e6174696f6e2061646472657373206d757374206265206e6f6e2d7a65726f2e4e656564206f70657261746f7220617070726f76616c20666f7220337264207061727479207472616e73666572732e636f6e74726163742072657475726e656420616e20756e6b6e6f776e2076616c75652066726f6d206f6e45524331313535426174636852656365697665645f69647320616e64205f76616c756573206172726179206c656e676874206d757374206d617463682e636f6e74726163742072657475726e656420616e20756e6b6e6f776e2076616c75652066726f6d206f6e455243313135355265636569766564a265627a7a72305820a4870d7bbc9ca493effc871d2d3c4aec4b0f4311388f380f92aa1d0abec0d34c64736f6c634300050a0032a365627a7a723058209947f606b1e0dc08ec8cd44934729781ae10393e44eaf07f4c61634fcafbde7d6c6578706572696d656e74616cf564736f6c634300050a0040","compiler":{"name":"solc","version":"0.5.10+commit.5a6ea5b1.Emscripten.clang","optimizer":{},"evmVersion":"constantinople"}}